00COTAHIST.2016BOVESPA 20160316                                                                                                                                                                                                                      
012016031602AAPL34      010APPLE       DRN          R$  000000000400000000000040000000000003953000000000396600000000039530000000003906000000000399000004000000000000015200000000000060293600000000000000009999123100000010000000000000BRAAPLBDR004116
012016031696AAPL34F     020APPLE       DRN          R$  000000000420000000000042000000000004200000000000420000000000042000000000004200000000000000000001000000000000000003000000000000012600000000000000009999123100000010000000000000BRAAPLBDR004116
012016031610ABCB10      010ABC BRASIL  PN  REC N2   R$  000000000097200000000010170000000000972000000000099000000000010170000000000950000000000000000003000000000000000500000000000000495000000000000000009999123100000010000000000000BRABCBR09PR2124
012016031696ABCB10F     020ABC BRASIL  PN  REC N2   R$  000000000105000000000010500000000001050000000000105000000000010500000000000930000000000105000002000000000000000080000000000000084000000000000000009999123100000010000000000000BRABCBR09PR2124
012016031602ABCB4       010ABC BRASIL  PN      N2   R$  000000000102400000000010410000000000988000000000100500000000010350000000001004000000000103502110000000000000386600000000000388632400000000000000009999123100000010000000000000BRABCBACNPR4125
012016031696ABCB4F      020ABC BRASIL  PN      N2   R$  000000000099500000000009950000000000950000000000099100000000009600000000000964000000000113700003000000000000000022000000000000021810000000000000009999123100000010000000000000BRABCBACNPR4125
012016031662ABCB4T      030ABC BRASIL  PN      N2061R$  000000000102000000000010210000000001020000000000102000000000010210000000000000000000000000000002000000000000005900000000000006023599000000000000009999123100000010000000000000BRABCBACNPR4125
012016031612ABCP11      010FII ABC IMOBCI           R$  000000000097900000000009800000000000979000000000097900000000009800000000000970000000000098000003000000000000000038000000000000037230000000000000009999123100000010000000000000BRABCPCTF000245
012016031602ABEV3       010AMBEV S/A   ON           R$  000000000181800000000018300000000001787000000000180900000000018290000000001825000000000182938714000000000012644400000000022880149800000000000000009999123100000010000000000000BRABEVACNOR1112
012016031696ABEV3F      020AMBEV S/A   ON           R$  000000000183300000000018480000000001790000000000180900000000018250000000001820000000000182500205000000000000005314000000000009622188000000000000009999123100000010000000000000BRABEVACNOR1112
012016031662ABEV3T      030AMBEV S/A   ON        016R$  000000000183100000000018320000000001831000000000183100000000018320000000000000000000000000000002000000000000001000000000000001831016000000000000009999123100000010000000000000BRABEVACNOR1112
012016031662ABEV3T      030AMBEV S/A   ON        030R$  000000000183700000000018490000000001837000000000184000000000018490000000000000000000000000000004000000000000000700000000000001288239000000000000009999123100000010000000000000BRABEVACNOR1112
012016031662ABEV3T      030AMBEV S/A   ON        120R$  000000000189900000000019000000000001899000000000189900000000019000000000000000000000000000000002000000000000000200000000000000379980000000000000009999123100000010000000000000BRABEVACNOR1112
012016031678ABEVC17     070ABEV        ON        000R$  000000000006000000000000600000000000057000000000005700000000000570000000000050000000000000000003000000000000010200000000000000582000000000000174502016032100000010000000000000BRABEVACNOR1110
012016031678ABEVC18     070ABEV        ON        000R$  000000000004700000000000470000000000026000000000002700000000000420000000000011000000000005500008000000000000056300000000000001543800000000000179502016032100000010000000000000BRABEVACNOR1110
012016031678ABEVC19     070ABEVE       ON        000R$  000000000000400000000000040000000000001000000000000300000000000010000000000001000000000000500005000000000000017500000000000000053000000000000192002016032100000010000000000000BRABEVACNOR1110
012016031678ABEVC46     070ABEV        ON        000R$  000000000017000000000001700000000000165000000000016800000000001650000000000000000000000000000005000000000000000500000000000000084000000000000164502016032100000010000000000000BRABEVACNOR1110
012016031678ABEVC48     070ABEV        ON        000R$  000000000001600000000000160000000000007000000000001100000000000100000000000004000000000003300018000000000000019400000000000000224800000000000184502016032100000010000000000000BRABEVACNOR1110
012016031678ABEVC49     070ABEV        ON        000R$  000000000000100000000000010000000000001000000000000100000000000010000000000000000000000000400005000000000000064900000000000000064900000000000194502016032100000010000000000000BRABEVACNOR1110
012016031678ABEVC6      070ABEV        ON        000R$  000000000021500000000002150000000000215000000000021500000000002150000000000000000000000000000001000000000000001100000000000000236500000000000159502016032100000010000000000000BRABEVACNOR1110
012016031678ABEVC69     070ABEV        ON        000R$  000000000000200000000000020000000000002000000000000200000000000020000000000001000000000000500001000000000000001000000000000000002000000000000189502016032100000010000000000000BRABEVACNOR1110
012016031678ABEVC78     070ABEVE       ON        000R$  000000000000600000000000060000000000006000000000000600000000000060000000000003000000000000900001000000000000003000000000000000018000000000000187002016032100000010000000000000BRABEVACNOR1110
012016031678ABEVD18     070ABEV  FM    ON        000R$  000000000004900000000000490000000000047000000000004800000000000470000000000055000000000007000004000000000000006800000000000000331400000000000184502016041800000010000000000000BRABEVACNOR1110
012016031678ABEVD19     070ABEVE       ON        000R$  000000000003800000000000380000000000038000000000003800000000000380000000000038000000000000000001000000000000000300000000000000011400000000000187002016041800000010000000000000BRABEVACNOR1108
012016031678ABEVD20     070ABEV  FM    ON        000R$  000000000002300000000000240000000000016000000000001900000000000230000000000019000000000002600023000000000000044300000000000000850300000000000194502016041800000010000000000000BRABEVACNOR1107
012016031678ABEVD21     070ABEV        ON        000R$  000000000001000000000000100000000000009000000000000900000000000090000000000000000000000001700014000000000000004300000000000000041000000000000204502016041800000010000000000000BRABEVACNOR1110
012016031678ABEVD49     070ABEV  FM    ON        000R$  000000000003400000000000340000000000028000000000002900000000000280000000000025000000000000000003000000000000013400000000000000393800000000000189502016041800000010000000000000BRABEVACNOR1107
012016031678ABEVD50     070ABEV  FM    ON        000R$  000000000000900000000000090000000000009000000000000900000000000090000000000000000000000003200002000000000000010000000000000000090000000000000199502016041800000010000000000000BRABEVACNOR1107
012016031678ABEVD56     070ABEV        ON        000R$  000000000023200000000002320000000000232000000000023200000000002320000000000000000000000000000001000000000000001100000000000000255200000000000159502016041800000010000000000000BRABEVACNOR1111
012016031678ABEVD60     070ABEVE       ON        000R$  000000000001100000000000130000000000008000000000001000000000000100000000000010000000000001200043000000000000097200000000000001009900000000000202002016041800000010000000000000BRABEVACNOR1112
012016031678ABEVE69     070ABEVE       ON        000R$  000000000007300000000000730000000000073000000000007300000000000730000000000000000000000000000001000000000000000400000000000000029200000000000187002016051600000010000000000000BRABEVACNOR1108
012016031678ABEVG99     070ABEVE       ON        000R$  000000000005000000000000500000000000050000000000005000000000000500000000000000000000000000000002000000000000055000000000000002750000000000000197002016071800000010000000000000BRABEVACNOR1112
012016031682ABEVO18     080ABEVE       ON        000R$  000000000001200000000000250000000000012000000000002400000000000150000000000000000000000000000005000000000000015800000000000000385000000000000179502016032100000010000000000000BRABEVACNOR1110
012016031682ABEVO20     080ABEVE       ON        000R$  000000000019100000000001990000000000171000000000017900000000001720000000000000000000000000000058000000000000008200000000000001468800000000000199502016032100000010000000000000BRABEVACNOR1110
012016031682ABEVO47     080ABEVE       ON        000R$  000000000000200000000000020000000000002000000000000200000000000020000000000000000000000001000001000000000000001000000000000000002000000000000169502016032100000010000000000000BRABEVACNOR1108
012016031682ABEVO48     080ABEVE       ON        000R$  000000000004600000000000490000000000046000000000004700000000000490000000000000000000000000000015000000000000050000000000000002360000000000000184502016032100000010000000000000BRABEVACNOR1110
012016031682ABEVO69     080ABEVE       ON        000R$  000000000010000000000001000000000000100000000000010000000000001000000000000000000000000000000002000000000000002100000000000000210000000000000189502016032100000010000000000000BRABEVACNOR1110
012016031682ABEVP18     080ABEVE FM    ON        000R$  000000000006300000000000630000000000063000000000006300000000000630000000000000000000000000000002000000000000001800000000000000113400000000000184502016041800000010000000000000BRABEVACNOR1110
012016031682ABEVP48     080ABEVE FM    ON        000R$  000000000003900000000000390000000000039000000000003900000000000390000000000000000000000000000020000000000000100000000000000003900000000000000179502016041800000010000000000000BRABEVACNOR1107
012016031682ABEVP50     080ABEVE       ON        000R$  000000000019200000000001920000000000192000000000019200000000001920000000000000000000000000000001000000000000001000000000000000192000000000000199502016041800000010000000000000BRABEVACNOR1107
012016031682ABEVP81     080ABEVE FM    ON        000R$  000000000003400000000000340000000000034000000000003400000000000340000000000009000000000000000003000000000000006000000000000000204000000000000174502016041800000010000000000000BRABEVACNOR1107
012016031682ABEVP94     080ABEVE       ON        000R$  000000000003800000000000380000000000038000000000003800000000000380000000000000000000000000000001000000000000004000000000000000152000000000000177002016041800000010000000000000BRABEVACNOR1108
012016031682ABEVQ68     080ABEVE       ON        000R$  000000000006500000000000650000000000065000000000006500000000000650000000000000000000000000000001000000000000000500000000000000032500000000000182002016051600000010000000000000BRABEVACNOR1111
012016031682ABEVS48     080ABEVE       ON        000R$  000000000007500000000000750000000000075000000000007500000000000750000000000000000000000000000001000000000000055000000000000004125000000000000179502016071800000010000000000000BRABEVACNOR1107
012016031682ABEVS66     080ABEVE       ON        000R$  000000000001000000000000100000000000010000000000001000000000000100000000000000000000000000000002000000000000055000000000000000550000000000000162002016071800000010000000000000BRABEVACNOR1112
012016031602ABTT34      010ABBOTT      DRN          R$  000000000384600000000038460000000003846000000000384600000000038460000000003706000000000378800001000000000000002600000000000009999600000000000000009999123100000010000000000000BRABTTBDR007117
012016031612AEFI11      010FII AESAPAR CI           R$  000000001005100000000101230000000009911000000001001900000000099700000000009922000000000997000183000000000000002937000000000029427791000000000000009999123100000010000000000000BRAEFICTF002151
012016031602AELP3       010AES ELPA    ON           R$  000000000078000000000010010000000000780000000000089900000000010000000000000653000000000100000010000000000000002100000000000001889000000000000000009999123100000010000000000000BRAELPACNOR2122
012016031696AELP3F      020AES ELPA    ON           R$  000000000100000000000010000000000001000000000000100000000000010000000000000675000000000100000001000000000000000003000000000000003000000000000000009999123100000010000000000000BRAELPACNOR2122
012016031602AFLU3       010AFLUENTE    ON           R$  000000000024900000000002490000000000249000000000024900000000002490000000000201000000000035000001000000000000000300000000000000074700000000000000009999123100000010000000000000BRAFLUACNOR9119
012016031612AGCX11      010FII AG CAIXACI           R$  000000009500000000000951000000000094535000000009494400000000948010000000094800000000009480100027000000000000000256000000000024305675000000000000009999123100000010000000000000BRAGCXCTF003140
012016031602AGRO3       010BRASILAGRO  ON      NM   R$  000000000111700000000011170000000001100000000000111000000000011140000000001114000000000111500093000000000000056500000000000062768500000000000000009999123100000010000000000000BRAGROACNOR7104
012016031696AGRO3F      020BRASILAGRO  ON      NM   R$  000000000112000000000011200000000001120000000000112000000000011200000000001091000000000113300002000000000000000042000000000000047040000000000000009999123100000010000000000000BRAGROACNOR7104
012016031612ALMI11B     010FII TORRE ALCI      MB   R$  000000013300000000001340000000000132010000000013293300000001330000000000132000000000013300000017000000000000000131000000000017414302000000000000009999123100000010000000000000BRALMICTF003235
012016031602ALPA4       010ALPARGATAS  PN  EJ  N1   R$  000000000074900000000007720000000000741000000000075500000000007600000000000760000000000076402527000000000000833800000000000629787300000000000000009999123100000010000000000000BRALPAACNPR7216
012016031696ALPA4F      020ALPARGATAS  PN  EJ  N1   R$  000000000076600000000008000000000000758000000000077100000000007600000000000745000000000081000011000000000000000325000000000000250732000000000000009999123100000010000000000000BRALPAACNPR7216
012016031662ALPA4T      030ALPARGATAS  PN  EJ  N1030R$  000000000076800000000007690000000000768000000000076800000000007690000000000000000000000000000002000000000000000600000000000000460834000000000000009999123100000010000000000000BRALPAACNPR7216
012016031602ALSC3       010ALIANSCE    ON      NM   R$  000000000124100000000012430000000001203000000000122100000000012290000000001229000000000123000847000000000000192100000000000234620900000000000000009999123100000010000000000000BRALSCACNOR0108
012016031696ALSC3F      020ALIANSCE    ON      NM   R$  000000000122000000000012380000000001199000000000121700000000011990000000001100000000000120000005000000000000000217000000000000264173000000000000009999123100000010000000000000BRALSCACNOR0108
012016031602ALUP11      010ALUPAR      UNT     N2   R$  000000000133100000000013430000000001293000000000132100000000013180000000001307000000000131800589000000000000112300000000000148350900000000000000009999123100000010000000000000BRALUPCDAM15103
012016031696ALUP11F     020ALUPAR      UNT     N2   R$  000000000133100000000013400000000001309000000000132800000000013090000000001307000000000133700021000000000000000406000000000000539384000000000000009999123100000010000000000000BRALUPCDAM15103
012016031602AMAR3       010LOJAS MARISAON      NM   R$  000000000068500000000007100000000000685000000000069800000000006980000000000700000000000070500060000000000000008700000000000006079800000000000000009999123100000010000000000000BRAMARACNOR4112
012016031696AMAR3F      020LOJAS MARISAON      NM   R$  000000000074500000000007450000000000745000000000074500000000007450000000000685000000000074500001000000000000000002000000000000001490000000000000009999123100000010000000000000BRAMARACNOR4112
012016031602AMGN34      010AMGEN       DRN          R$  000000005443200000000544320000000053979000000005413000000000539790000000053210000000005404600002000000000000000300000000000016239000000000000000009999123100000010000000000000BRAMGNBDR004117
012016031602AMZO34      010AMAZON      DRN          R$  000000010825500000001082550000000108255000000010825500000001082550000000106162000000010782200001000000000000000100000000000010825500000000000000009999123100000010000000000000BRAMZOBDR002101
012016031602ANIM3       010ANIMA       ON      NM   R$  000000000105900000000010850000000001026000000000106800000000010700000000001065000000000107001061000000000000611900000000000653536800000000000000009999123100000010000000000000BRANIMACNOR6102
012016031696ANIM3F      020ANIMA       ON      NM   R$  000000000104500000000010550000000001045000000000104600000000010550000000001038000000000114900005000000000000000139000000000000145475000000000000009999123100000010000000000000BRANIMACNOR6102
012016031602ARTR3       010ARTERIS     ON      NM   R$  000000000094500000000009500000000000934000000000094000000000009500000000000950000000000096400607000000000000347100000000000326487400000000000000009999123100000010000000000000BRARTRACNOR3105
012016031696ARTR3F      020ARTERIS     ON      NM   R$  000000000093400000000010000000000000934000000000095500000000009420000000000922000000000100000007000000000000000240000000000000229403000000000000009999123100000010000000000000BRARTRACNOR3105
012016031602ARZZ3       010AREZZO CO   ON      NM   R$  000000000216900000000021750000000002108000000000215700000000021600000000002160000000000217600021000000000000013500000000000029130300000000000000009999123100000010000000000000BRARZZACNOR3119
012016031696ARZZ3F      020AREZZO CO   ON      NM   R$  000000000213600000000021360000000002135000000000213500000000021350000000002175000000000229900002000000000000000032000000000000068331000000000000009999123100000010000000000000BRARZZACNOR3119
012016031608ATOM3       010ATOMPAR     ON           R$  000000000001800000000000180000000000017000000000001700000000000180000000000017000000000001800127000000000000416300000000000007250000000000000000009999123100000010000000000000BRATOMACNOR1100
012016031696ATOM3F      020ATOMPAR     ON           R$  000000000001700000000000170000000000017000000000001700000000000170000000000017000000000002900002000000000000000050000000000000000850000000000000009999123100000010000000000000BRATOMACNOR1100
012016031612ATSA11B     010FII CSHGATSACI      MB   R$  000000008700000000000870000000000087000000000008700000000000870000000000085000000000010000000005000000000000000968000000000084216000000000000000009999123100000010000000000000BRATSACTF000100
012016031602ATTB34      010ATT INC     DRN          R$  000000001444500000000144450000000014445000000001444500000000144450000000000000000000000000000001000000000000000100000000000001444500000000000000009999123100000010000000000000BRATTBBDR007114
012016031602BAHI3       010BAHEMA      ON           R$  000000000028000000000002800000000000280000000000028000000000002800000000000280000000000029000001000000000000000100000000000000028000000000000000009999123100000010000000000000BRBAHIACNOR1068
012016031602BALM4       010BAUMER      PN           R$  000000000090000000000009000000000000900000000000090000000000009000000000000791000000000140000001000000000000000300000000000000270000000000000000009999123100000010000000000000BRBALMACNPR2046
012016031602BAZA3       010AMAZONIA    ON           R$  000000000002500000000000260000000000025000000000002500000000000250000000000025000000000002600005000000000000012000000000000000304000000000000000009999123100000010000000000000BRBAZAACNOR0167
012016031602BBAS3       010BRASIL      ON  EJ  NM   R$  000000000171500000000018390000000001680000000000176400000000018090000000001808000000000181444155000000000023570000000000041601675800000000000000009999123100000010000000000000BRBBASACNOR3259
012016031696BBAS3F      020BRASIL      ON  EJ  NM   R$  000000000172800000000018510000000001684000000000176700000000018250000000001823000000000182500777000000000000021641000000000038271960000000000000009999123100000010000000000000BRBBASACNOR3259
012016031662BBAS3T      030BRASIL      ON  EJ  NM016R$  000000000179100000000018190000000001791000000000180000000000018190000000000000000000000000000004000000000000003000000000000005401253000000000000009999123100000010000000000000BRBBASACNOR3259
012016031662BBAS3T      030BRASIL      ON  EJ  NM030R$  000000000178600000000018480000000001752000000000181400000000018290000000000000000000000000000018000000000000008700000000000015785657000000000000009999123100000010000000000000BRBBASACNOR3259
012016031662BBAS3T      030BRASIL      ON  EJ  NM037R$  000000000183500000000018360000000001835000000000183500000000018360000000000000000000000000000002000000000000010000000000000018350863000000000000009999123100000010000000000000BRBBASACNOR3259
012016031662BBAS3T      030BRASIL      ON  EJ  NM061R$  000000000183700000000018480000000001783000000000179400000000018480000000000000000000000000000008000000000000069800000000000125243265000000000000009999123100000010000000000000BRBBASACNOR3259
012016031662BBAS3T      030BRASIL      ON  EJ  NM064R$  000000000186900000000018710000000001869000000000187000000000018710000000000000000000000000000004000000000000005000000000000009351398000000000000009999123100000010000000000000BRBBASACNOR3259
012016031662BBAS3T      030BRASIL      ON  EJ  NM090R$  000000000175100000000018730000000001751000000000186800000000018730000000000000000000000000000006000000000000032000000000000059806223000000000000009999123100000010000000000000BRBBASACNOR3259
012016031662BBAS3T      030BRASIL      ON  EJ  NM120R$  000000000181700000000018180000000001817000000000181700000000018180000000000000000000000000000002000000000000001700000000000003089631000000000000009999123100000010000000000000BRBBASACNOR3259
012016031678BBASC1      070BBASE   /EJ ON      NM000R$  000000000031000000000003350000000000310000000000032200000000003350000000000335000000000000000003000000000000002000000000000000645000000000000142502016032100000010000000000000BRBBASACNOR3257
012016031678BBASC13     070BBAS    /EJ ON      NM000R$  000000000042300000000004800000000000423000000000046400000000004800000000000415000000000000000003000000000000001400000000000000650700000000000130002016032100000010000000000000BRBBASACNOR3257
012016031678BBASC14     070BBAS    /EJ ON      NM000R$  000000000030000000000004000000000000300000000000034300000000003350000000000400000000000000000012000000000000023400000000000008028500000000000140002016032100000010000000000000BRBBASACNOR3257
012016031678BBASC15     070BBAS    /EJ ON      NM000R$  000000000018600000000003080000000000186000000000025100000000003000000000000310000000000040000040000000000000017600000000000004434300000000000150002016032100000010000000000000BRBBASACNOR3257
012016031678BBASC16     070BBAS    /EJ ON      NM000R$  000000000022300000000002400000000000140000000000020100000000002390000000000215000000000000000028000000000000031100000000000006259200000000000160002016032100000010000000000000BRBBASACNOR3257
012016031678BBASC17     070BBAS    /EJ ON      NM000R$  000000000009400000000001600000000000070000000000011300000000001530000000000070000000000000000153000000000000117900000000000013387300000000000170002016032100000010000000000000BRBBASACNOR3257
012016031678BBASC24     070BBAS    /EJ ON      NM000R$  000000000001200000000000140000000000002000000000000800000000000030000000000003000000000001000006000000000000015700000000000000140900000000000225002016032100000010000000000000BRBBASACNOR3251
012016031678BBASC25     070BBAS    /EJ ON      NM000R$  000000000000200000000000020000000000001000000000000100000000000010000000000001000000000000400002000000000000004800000000000000007600000000000235002016032100000010000000000000BRBBASACNOR3251
012016031678BBASC26     070BBAS    /EJ ON      NM000R$  000000000000600000000000060000000000003000000000000500000000000030000000000000000000000000100002000000000000010800000000000000062400000000000245002016032100000010000000000000BRBBASACNOR3251
012016031678BBASC3      070BBASE   /EJ ON      NM000R$  000000000004800000000000800000000000038000000000005200000000000730000000000050000000000000000102000000000000101800000000000005386400000000000182502016032100000010000000000000BRBBASACNOR3250
012016031678BBASC43     070BBAS    /EJ ON      NM000R$  000000000047000000000004700000000000470000000000047000000000004700000000000300000000000000000001000000000000000500000000000000235000000000000135002016032100000010000000000000BRBBASACNOR3257
012016031678BBASC44     070BBAS    /EJ ON      NM000R$  000000000030000000000003470000000000250000000000032300000000002700000000000270000000000050000046000000000000005800000000000001878400000000000145002016032100000010000000000000BRBBASACNOR3257
012016031678BBASC45     070BBAS    /EJ ON      NM000R$  000000000017000000000002850000000000170000000000022200000000002680000000000000000000000000000031000000000000009000000000000002006300000000000155002016032100000010000000000000BRBBASACNOR3257
012016031678BBASC47     070BBAS    /EJ ON      NM000R$  000000000008000000000001160000000000050000000000006300000000001000000000000001000000000000000100000000000000121000000000000007666600000000000175002016032100000010000000000000BRBBASACNOR3257
012016031678BBASC54     070BBAS    /EJ ON      NM000R$  000000000000300000000000030000000000003000000000000300000000000030000000000000000000000010000001000000000000006000000000000000018000000000000230002016032100000010000000000000BRBBASACNOR3251
012016031678BBASC67     070BBASE   /EJ ON      NM000R$  000000000014700000000001810000000000147000000000016300000000001580000000000000000000000000000028000000000000125600000000000020598000000000000167502016032100000010000000000000BRBBASACNOR3255
012016031678BBASC70     070BBAS    /EJ ON      NM000R$  000000000005000000000000960000000000040000000000006200000000000870000000000039000000000009300191000000000000443800000000000027664200000000000180002016032100000010000000000000BRBBASACNOR3249
012016031678BBASC71     070BBAS    /EJ ON      NM000R$  000000000003300000000000620000000000021000000000003100000000000470000000000028000000000004700702000000000002095600000000000065023100000000000190002016032100000010000000000000BRBBASACNOR3249
012016031678BBASC72     070BBAS    /EJ ON      NM000R$  000000000002000000000000380000000000010000000000002100000000000190000000000010000000000001900474000000000001143400000000000024886300000000000200002016032100000010000000000000BRBBASACNOR3249
012016031678BBASC73     070BBAS    /EJ ON      NM000R$  000000000001500000000000150000000000004000000000001000000000000130000000000006000000000001300047000000000000114700000000000001251500000000000210002016032100000010000000000000BRBBASACNOR3249
012016031678BBASC74     070BBAS    /EJ ON      NM000R$  000000000000500000000000060000000000002000000000000400000000000050000000000000000000000001000008000000000000138800000000000000576900000000000220002016032100000010000000000000BRBBASACNOR3249
012016031678BBASC75     070BBASE   /EJ ON      NM000R$  000000000000500000000000050000000000004000000000000400000000000050000000000000000000000000000003000000000000006300000000000000026500000000000227502016032100000010000000000000BRBBASACNOR3251
012016031678BBASC78     070BBASE   /EJ ON      NM000R$  000000000000100000000000030000000000001000000000000100000000000030000000000000000000000001000003000000000000005600000000000000006600000000000242502016032100000010000000000000BRBBASACNOR3251
012016031678BBASC79     070BBASE   /EJ ON      NM000R$  000000000000300000000000030000000000003000000000000300000000000030000000000000000000000000000001000000000000000500000000000000001500000000000247502016032100000010000000000000BRBBASACNOR3251
012016031678BBASC80     070BBAS    /EJ ON      NM000R$  000000000004300000000000770000000000034000000000005100000000000650000000000000000000000000000082000000000000681000000000000034804100000000000185002016032100000010000000000000BRBBASACNOR3249
012016031678BBASC81     070BBAS    /EJ ON      NM000R$  000000000003100000000000440000000000014000000000001900000000000310000000000020000000000004000625000000000001896400000000000037724900000000000195002016032100000010000000000000BRBBASACNOR3249
012016031678BBASC82     070BBAS    /EJ ON      NM000R$  000000000002000000000000200000000000011000000000001600000000000150000000000009000000000000000024000000000000078800000000000001275600000000000205002016032100000010000000000000BRBBASACNOR3249
012016031678BBASC83     070BBAS    /EJ ON      NM000R$  000000000000700000000000100000000000007000000000000700000000000100000000000002000000000003000003000000000000010000000000000000073000000000000215002016032100000010000000000000BRBBASACNOR3249
012016031678BBASD1      070BBASE FM/EJ ON      NM000R$  000000000017700000000002400000000000173000000000020500000000002240000000000070000000000000000056000000000000100300000000000020639100000000000178402016041800000010000000000000BRBBASACNOR3251
012016031678BBASD14     070BBAS    /EJ ON      NM000R$  000000000040200000000004560000000000380000000000039200000000004560000000000362000000000000000005000000000000001500000000000000588600000000000138402016041800000010000000000000BRBBASACNOR3257
012016031678BBASD15     070BBAS    /EJ ON      NM000R$  000000000037000000000003960000000000335000000000037700000000003960000000000315000000000039600008000000000000002700000000000001019500000000000148402016041800000010000000000000BRBBASACNOR3257
012016031678BBASD16     070BBAS    /EJ ON      NM000R$  000000000027500000000003000000000000255000000000028200000000002990000000000170000000000044800072000000000000027500000000000007777800000000000158402016041800000010000000000000BRBBASACNOR3257
012016031678BBASD17     070BBAS    /EJ ON      NM000R$  000000000022200000000003000000000000218000000000025200000000002800000000000250000000000030000048000000000000071100000000000017969800000000000168402016041800000010000000000000BRBBASACNOR3257
012016031678BBASD18     070BBAS  FM/EJ ON      NM000R$  000000000015400000000002150000000000144000000000017800000000001910000000000154000000000021400099000000000000099500000000000017787000000000000185902016041800000010000000000000BRBBASACNOR3257
012016031678BBASD19     070BBAS  FM/EJ ON      NM000R$  000000000013800000000001960000000000138000000000017000000000001730000000000173000000000024000052000000000000089300000000000015262700000000000190902016041800000010000000000000BRBBASACNOR3257
012016031678BBASD2      070BBAS    /EJ ON      NM000R$  000000000019400000000002290000000000180000000000021000000000002100000000000200000000000000000023000000000000071100000000000014981800000000000180902016041800000010000000000000BRBBASACNOR3251
012016031678BBASD20     070BBAS    /EJ ON      NM000R$  000000000011000000000001580000000000108000000000013100000000001400000000000118000000000014000155000000000000205300000000000027010700000000000200902016041800000010000000000000BRBBASACNOR3257
012016031678BBASD23     070BBAS    /EJ ON      NM000R$  000000000005800000000000870000000000058000000000007600000000000730000000000050000000000000000031000000000000036300000000000002761500000000000230902016041800000010000000000000BRBBASACNOR3258
012016031678BBASD24     070BBAS    /EJ ON      NM000R$  000000000005500000000000680000000000049000000000005700000000000580000000000054000000000006100044000000000000054600000000000003138500000000000240902016041800000010000000000000BRBBASACNOR3258
012016031678BBASD25     070BBAS    /EJ ON      NM000R$  000000000004300000000000630000000000042000000000004800000000000490000000000020000000000005500053000000000000050400000000000002467100000000000250902016041800000010000000000000BRBBASACNOR3258
012016031678BBASD26     070BBAS    /EJ ON      NM000R$  000000000005000000000000520000000000033000000000003800000000000380000000000035000000000005000237000000000000373400000000000014553300000000000260902016041800000010000000000000BRBBASACNOR3258
012016031678BBASD30     070BBAS    /EJ ON      NM000R$  000000000002100000000000260000000000014000000000001800000000000190000000000016000000000002000032000000000000177900000000000003248200000000000300902016041800000010000000000000BRBBASACNOR3258
012016031678BBASD4      070BBAS    /EJ ON      NM000R$  000000000007600000000001080000000000069000000000008800000000000920000000000080000000000010500157000000000000266400000000000023643700000000000220902016041800000010000000000000BRBBASACNOR3250
012016031678BBASD44     070BBAS    /EJ ON      NM000R$  000000000038200000000003820000000000381000000000038100000000003810000000000000000000000000000002000000000000045000000000000017172000000000000143402016041800000010000000000000BRBBASACNOR3257
012016031678BBASD46     070BBAS    /EJ ON      NM000R$  000000000024400000000003000000000000244000000000027100000000002830000000000250000000000000000004000000000000008000000000000002174000000000000163402016041800000010000000000000BRBBASACNOR3257
012016031678BBASD47     070BBAS    /EJ ON      NM000R$  000000000019800000000002400000000000186000000000021300000000002360000000000010000000000000000022000000000000031600000000000006737300000000000175902016041800000010000000000000BRBBASACNOR3257
012016031678BBASD49     070BBAS    /EJ ON      NM000R$  000000000012300000000001700000000000123000000000015000000000001550000000000143000000000000000017000000000000022500000000000003385200000000000195902016041800000010000000000000BRBBASACNOR3257
012016031678BBASD50     070BBAS  FM/EJ ON      NM000R$  000000000010500000000001430000000000097000000000011500000000001250000000000100000000000000000066000000000000109500000000000012673600000000000205902016041800000010000000000000BRBBASACNOR3256
012016031678BBASD53     070BBAS    /EJ ON      NM000R$  000000000005500000000000730000000000055000000000006400000000000640000000000000000000000024900011000000000000011600000000000000753800000000000235902016041800000010000000000000BRBBASACNOR3258
012016031678BBASD67     070BBASE FM/EJ ON      NM000R$  000000000019800000000002550000000000191000000000022600000000002550000000000000000000000000000029000000000000045600000000000010316000000000000173402016041800000010000000000000BRBBASACNOR3256
012016031678BBASD70     070BBASE   /EJ ON      NM000R$  000000000015400000000001540000000000131000000000013600000000001480000000000000000000000000000013000000000000033900000000000004619400000000000198402016041800000010000000000000BRBBASACNOR3256
012016031678BBASE17     070BBAS    /EJ ON      NM000R$  000000000035400000000003540000000000344000000000034600000000003440000000000214000000000000000003000000000000500000000000000173375000000000000164102016051600000010000000000000BRBBASACNOR3253
012016031678BBASE18     070BBAS  FM/EJ ON      NM000R$  000000000026400000000003050000000000264000000000028100000000003050000000000245000000000000000026000000000000037200000000000010462600000000000179102016051600000010000000000000BRBBASACNOR3257
012016031678BBASE19     070BBAS  FM/EJ ON      NM000R$  000000000023200000000003010000000000232000000000026200000000002650000000000000000000000000000016000000000000025900000000000006796900000000000189102016051600000010000000000000BRBBASACNOR3257
012016031678BBASE20     070BBAS    /EJ ON      NM000R$  000000000022500000000002650000000000193000000000022100000000002350000000000234000000000026500143000000000000217400000000000048198100000000000199102016051600000010000000000000BRBBASACNOR3257
012016031678BBASE22     070BBAS    /EJ ON      NM000R$  000000000019000000000002300000000000180000000000020200000000001950000000000000000000000023000023000000000000026300000000000005327000000000000209102016051600000010000000000000BRBBASACNOR3253
012016031678BBASE24     070BBAS    /EJ ON      NM000R$  000000000011500000000001630000000000115000000000014500000000001260000000000030000000000029500005000000000000006100000000000000884700000000000239102016051600000010000000000000BRBBASACNOR3258
012016031678BBASE25     070BBAS    /EJ ON      NM000R$  000000000010600000000001060000000000106000000000010600000000001060000000000100000000000000000001000000000000003500000000000000371000000000000249102016051600000010000000000000BRBBASACNOR3258
012016031678BBASE26     070BBAS    /EJ ON      NM000R$  000000000010300000000001030000000000103000000000010300000000001030000000000010000000000039000001000000000000000100000000000000010300000000000259102016051600000010000000000000BRBBASACNOR3258
012016031678BBASE47     070BBAS  FM/EJ ON      NM000R$  000000000028200000000003300000000000282000000000030100000000003170000000000058000000000000000019000000000000030700000000000009245600000000000174102016051600000010000000000000BRBBASACNOR3257
012016031678BBASE48     070BBAS  FM/EJ ON      NM000R$  000000000027900000000003200000000000262000000000028400000000002770000000000000000000000000000006000000000000012200000000000003469900000000000184102016051600000010000000000000BRBBASACNOR3257
012016031678BBASE49     070BBAS    /EJ ON      NM000R$  000000000023100000000002530000000000231000000000024200000000002500000000000000000000000000000003000000000000012100000000000002932200000000000194102016051600000010000000000000BRBBASACNOR3257
012016031678BBASE52     070BBAS  FM/EJ ON      NM000R$  000000000016500000000001730000000000159000000000016300000000001700000000000000000000000050000032000000000000056500000000000009229100000000000219102016051600000010000000000000BRBBASACNOR3257
012016031678BBASE71     070BBAS    /EJ ON      NM000R$  000000000018000000000001900000000000176000000000018100000000001900000000000000000000000044000005000000000000005800000000000001053100000000000214102016051600000010000000000000BRBBASACNOR3251
012016031678BBASE72     070BBAS    /EJ ON      NM000R$  000000000015500000000001550000000000155000000000015500000000001550000000000000000000000020000001000000000000001700000000000000263500000000000224102016051600000010000000000000BRBBASACNOR3251
012016031678BBASE73     070BBAS    /EJ ON      NM000R$  000000000012200000000001220000000000122000000000012200000000001220000000000000000000000000000001000000000000000100000000000000012200000000000234102016051600000010000000000000BRBBASACNOR3251
012016031678BBASE74     070BBAS    /EJ ON      NM000R$  000000000014500000000001600000000000107000000000012400000000001220000000000121000000000012200772000000000001355100000000000168689800000000000244102016051600000010000000000000BRBBASACNOR3251
012016031678BBASE80     070BBASE   /EJ ON      NM000R$  000000000023700000000002370000000000222000000000022600000000002220000000000000000000000000000003000000000000015100000000000003413700000000000196602016051600000010000000000000BRBBASACNOR3255
012016031678BBASE91     070BBASE   /EJ ON      NM000R$  000000000019500000000001950000000000187000000000018700000000001870000000000000000000000000000002000000000000006500000000000001219500000000000206602016051600000010000000000000BRBBASACNOR3253
012016031678BBASF18     070BBAS    /EJ ON      NM000R$  000000000038000000000003800000000000380000000000038000000000003800000000000248000000000000000001000000000000005200000000000001976000000000000179102016062000000010000000000000BRBBASACNOR3257
012016031678BBASF2      070BBAS    /EJ ON      NM000R$  000000000030500000000003050000000000274000000000028200000000002840000000000001000000000065000003000000000000003000000000000000846200000000000199102016062000000010000000000000BRBBASACNOR3257
012016031678BBASF20     070BBASE   /EJ ON      NM000R$  000000000033800000000003380000000000290000000000030300000000002900000000000000000000000000000011000000000000002000000000000000607200000000000191602016062000000010000000000000BRBBASACNOR3253
012016031678BBASF21     070BBAS    /EJ ON      NM000R$  000000000022400000000002520000000000224000000000023900000000002520000000000012000000000000000005000000000000007000000000000001676000000000000209102016062000000010000000000000BRBBASACNOR3256
012016031678BBASF24     070BBASE   /EJ ON      NM000R$  000000000020000000000002000000000000200000000000020000000000002000000000000010000000000025000001000000000000007500000000000001500000000000000231602016062000000010000000000000BRBBASACNOR3253
012016031678BBASF64     070BBAS    /EJ ON      NM000R$  000000000019100000000001910000000000191000000000019100000000001910000000000015000000000000000001000000000000005200000000000000993200000000000224102016062000000010000000000000BRBBASACNOR3251
012016031682BBASO1      080BBASE   /EJ ON      NM000R$  000000000000800000000000080000000000008000000000000800000000000080000000000000000000000000500007000000000000002700000000000000021600000000000142502016032100000010000000000000BRBBASACNOR3257
012016031682BBASO11     080BBASE   /EJ ON      NM000R$  000000000000100000000000010000000000001000000000000100000000000010000000000000000000000000200001000000000000010000000000000000010000000000000110002016032100000010000000000000BRBBASACNOR3257
012016031682BBASO12     080BBASE   /EJ ON      NM000R$  000000000000200000000000020000000000002000000000000200000000000020000000000000000000000000100001000000000000010000000000000000020000000000000120002016032100000010000000000000BRBBASACNOR3257
012016031682BBASO13     080BBASE   /EJ ON      NM000R$  000000000000200000000000020000000000001000000000000100000000000010000000000000000000000000200008000000000000050400000000000000099400000000000130002016032100000010000000000000BRBBASACNOR3257
012016031682BBASO14     080BBASE   /EJ ON      NM000R$  000000000000600000000000060000000000002000000000000300000000000020000000000000000000000000200009000000000000079700000000000000266200000000000140002016032100000010000000000000BRBBASACNOR3257
012016031682BBASO15     080BBASE   /EJ ON      NM000R$  000000000001900000000000210000000000001000000000001000000000000030000000000003000000000000500060000000000000377600000000000003952400000000000150002016032100000010000000000000BRBBASACNOR3257
012016031682BBASO16     080BBASE   /EJ ON      NM000R$  000000000004000000000000470000000000008000000000002200000000000110000000000002000000000004000122000000000000662600000000000014577900000000000160002016032100000010000000000000BRBBASACNOR3257
012016031682BBASO17     080BBASE   /EJ ON      NM000R$  000000000009100000000000930000000000022000000000004200000000000230000000000000000000000003400177000000000000746700000000000031861600000000000170002016032100000010000000000000BRBBASACNOR3257
012016031682BBASO3      080BBASE   /EJ ON      NM000R$  000000000018000000000001800000000000067000000000008400000000000670000000000000000000000018000010000000000000042500000000000003570000000000000182502016032100000010000000000000BRBBASACNOR3250
012016031682BBASO42     080BBASE   /EJ ON      NM000R$  000000000000100000000000010000000000001000000000000100000000000010000000000000000000000000200001000000000000000700000000000000000700000000000125002016032100000010000000000000BRBBASACNOR3257
012016031682BBASO43     080BBASE   /EJ ON      NM000R$  000000000000300000000000030000000000001000000000000100000000000010000000000000000000000000800004000000000000006100000000000000008100000000000135002016032100000010000000000000BRBBASACNOR3257
012016031682BBASO44     080BBASE   /EJ ON      NM000R$  000000000001100000000000110000000000011000000000001100000000000110000000000000000000000001000001000000000000001000000000000000011000000000000145002016032100000010000000000000BRBBASACNOR3257
012016031682BBASO45     080BBASE   /EJ ON      NM000R$  000000000003000000000000320000000000008000000000001700000000000080000000000005000000000001200026000000000000066700000000000001183200000000000155002016032100000010000000000000BRBBASACNOR3257
012016031682BBASO46     080BBASE   /EJ ON      NM000R$  000000000004600000000000670000000000013000000000002100000000000130000000000010000000000000000053000000000000507900000000000010887500000000000165002016032100000010000000000000BRBBASACNOR3257
012016031682BBASO47     080BBASE   /EJ ON      NM000R$  000000000010500000000001090000000000035000000000005300000000000370000000000001000000000005000037000000000000070000000000000003752800000000000175002016032100000010000000000000BRBBASACNOR3257
012016031682BBASO52     080BBASE   /EJ ON      NM000R$  000000000040500000000004050000000000405000000000040500000000004050000000000000000000000000000001000000000000000600000000000000243000000000000222502016032100000010000000000000BRBBASACNOR3257
012016031682BBASO67     080BBASE   /EJ ON      NM000R$  000000000007200000000000760000000000017000000000006500000000000170000000000000000000000006500049000000000000189300000000000012487900000000000167502016032100000010000000000000BRBBASACNOR3255
012016031682BBASO70     080BBASE   /EJ ON      NM000R$  000000000013700000000001370000000000052000000000009800000000000520000000000000000000000015000014000000000000042400000000000004183100000000000180002016032100000010000000000000BRBBASACNOR3249
012016031682BBASO71     080BBASE   /EJ ON      NM000R$  000000000018000000000001800000000000180000000000018000000000001800000000000000000000000000000001000000000000000100000000000000018000000000000190002016032100000010000000000000BRBBASACNOR3249
012016031682BBASO72     080BBASE   /EJ ON      NM000R$  000000000032000000000003200000000000185000000000021300000000001850000000000000000000000000000007000000000000005300000000000001130000000000000200002016032100000010000000000000BRBBASACNOR3249
012016031682BBASO73     080BBASE   /EJ ON      NM000R$  000000000041000000000004100000000000410000000000041000000000004100000000000000000000000000000015000000000000010500000000000004305000000000000210002016032100000010000000000000BRBBASACNOR3249
012016031682BBASO80     080BBASE   /EJ ON      NM000R$  000000000008700000000000870000000000087000000000008700000000000870000000000000000000000000000001000000000000001000000000000000087000000000000185002016032100000010000000000000BRBBASACNOR3249
012016031682BBASO81     080BBASE   /EJ ON      NM000R$  000000000023000000000002300000000000220000000000022800000000002200000000000000000000000000000002000000000000003000000000000000685000000000000195002016032100000010000000000000BRBBASACNOR3249
012016031682BBASO82     080BBASE   /EJ ON      NM000R$  000000000027000000000002700000000000270000000000027000000000002700000000000000000000000000000003000000000000002600000000000000702000000000000205002016032100000010000000000000BRBBASACNOR3249
012016031682BBASP1      080BBASE FM/EJ ON      NM000R$  000000000024800000000002480000000000199000000000021400000000002080000000000000000000000000000027000000000000020600000000000004413900000000000178402016041800000010000000000000BRBBASACNOR3251
012016031682BBASP12     080BBASE   /EJ ON      NM000R$  000000000001400000000000140000000000011000000000001300000000000110000000000005000000000002500003000000000000004600000000000000061600000000000118402016041800000010000000000000BRBBASACNOR3257
012016031682BBASP13     080BBASE   /EJ ON      NM000R$  000000000003000000000000350000000000018000000000002500000000000190000000000014000000000006000029000000000000112500000000000002822400000000000128402016041800000010000000000000BRBBASACNOR3257
012016031682BBASP14     080BBASE   /EJ ON      NM000R$  000000000006800000000000690000000000043000000000005700000000000430000000000015000000000006900017000000000000043800000000000002507500000000000138402016041800000010000000000000BRBBASACNOR3257
012016031682BBASP15     080BBASE   /EJ ON      NM000R$  000000000008900000000001030000000000051000000000008200000000000510000000000006000000000006500076000000000000108000000000000008924500000000000148402016041800000010000000000000BRBBASACNOR3257
012016031682BBASP16     080BBASE   /EJ ON      NM000R$  000000000013800000000001430000000000087000000000012500000000000880000000000000000000000014000025000000000000019100000000000002403300000000000158402016041800000010000000000000BRBBASACNOR3257
012016031682BBASP17     080BBASE FM/EJ ON      NM000R$  000000000019200000000001920000000000130000000000016000000000001300000000000045000000000000000017000000000000031100000000000005005800000000000168402016041800000010000000000000BRBBASACNOR3257
012016031682BBASP18     080BBASE   /EJ ON      NM000R$  000000000029300000000002950000000000207000000000023500000000002120000000000000000000000022000030000000000000059400000000000013973400000000000185902016041800000010000000000000BRBBASACNOR3257
012016031682BBASP19     080BBASE   /EJ ON      NM000R$  000000000032900000000003290000000000290000000000030400000000003100000000000100000000000031000011000000000000017000000000000005174700000000000190902016041800000010000000000000BRBBASACNOR3257
012016031682BBASP2      080BBASE   /EJ ON      NM000R$  000000000026300000000002630000000000191000000000022600000000001910000000000180000000000030000011000000000000017500000000000003957400000000000180902016041800000010000000000000BRBBASACNOR3251
012016031682BBASP20     080BBASE   /EJ ON      NM000R$  000000000039500000000004010000000000300000000000032800000000003000000000000000000000000045000004000000000000000700000000000000229600000000000200902016041800000010000000000000BRBBASACNOR3257
012016031682BBASP42     080BBASE   /EJ ON      NM000R$  000000000002500000000000250000000000025000000000002500000000000250000000000009000000000009800003000000000000025000000000000000625000000000000123402016041800000010000000000000BRBBASACNOR3257
012016031682BBASP43     080BBASE   /EJ ON      NM000R$  000000000005000000000000500000000000042000000000004600000000000420000000000000000000000005000002000000000000005500000000000000255000000000000133402016041800000010000000000000BRBBASACNOR3257
012016031682BBASP44     080BBASE   /EJ ON      NM000R$  000000000006000000000000660000000000050000000000005700000000000500000000000027000000000000000037000000000000180200000000000010368200000000000143402016041800000010000000000000BRBBASACNOR3257
012016031682BBASP45     080BBASE   /EJ ON      NM000R$  000000000012000000000001250000000000094000000000010400000000000940000000000000000000000012700009000000000000017400000000000001809700000000000153402016041800000010000000000000BRBBASACNOR3257
012016031682BBASP46     080BBASE   /EJ ON      NM000R$  000000000011000000000001100000000000110000000000011000000000001100000000000080000000000018000001000000000000005000000000000000550000000000000163402016041800000010000000000000BRBBASACNOR3257
012016031682BBASP47     080BBASE   /EJ ON      NM000R$  000000000023100000000002320000000000186000000000021700000000001990000000000000000000000036100006000000000000004900000000000001066200000000000175902016041800000010000000000000BRBBASACNOR3257
012016031682BBASP64     080BBASE   /EJ ON      NM000R$  000000000007000000000000740000000000049000000000005900000000000550000000000000000000000000000057000000000000224400000000000013242800000000000140902016041800000010000000000000BRBBASACNOR3257
012016031682BBASP67     080BBASE FM/EJ ON      NM000R$  000000000021400000000002140000000000151000000000017800000000001510000000000140000000000028800014000000000000012300000000000002194100000000000173402016041800000010000000000000BRBBASACNOR3256
012016031682BBASP70     080BBASE FM/EJ ON      NM000R$  000000000035400000000003540000000000288000000000033200000000002950000000000000000000000000000033000000000000028700000000000009531400000000000198402016041800000010000000000000BRBBASACNOR3256
012016031682BBASQ15     080BBASE   /EJ ON      NM000R$  000000000017000000000001750000000000144000000000014800000000001440000000000045000000000000000006000000000000015100000000000002245000000000000149102016051600000010000000000000BRBBASACNOR3257
012016031682BBASQ16     080BBASE   /EJ ON      NM000R$  000000000021500000000002200000000000215000000000021700000000002200000000000000000000000000000002000000000000001000000000000000217500000000000159102016051600000010000000000000BRBBASACNOR3257
012016031682BBASQ17     080BBASE   /EJ ON      NM000R$  000000000025100000000002510000000000216000000000021700000000002170000000000000000000000000000007000000000000050400000000000010948300000000000164102016051600000010000000000000BRBBASACNOR3253
012016031682BBASQ18     080BBASE FM/EJ ON      NM000R$  000000000029400000000002950000000000290000000000029300000000002900000000000000000000000000000011000000000000022000000000000006450000000000000179102016051600000010000000000000BRBBASACNOR3257
012016031682BBASQ20     080BBASE   /EJ ON      NM000R$  000000000041500000000004150000000000415000000000041500000000004150000000000000000000000000000001000000000000002600000000000001079000000000000199102016051600000010000000000000BRBBASACNOR3257
012016031682BBASQ22     080BBASE FM/EJ ON      NM000R$  000000000053100000000005320000000000448000000000050100000000004480000000000000000000000000000028000000000000051500000000000025817700000000000209102016051600000010000000000000BRBBASACNOR3253
012016031682BBASQ41     080BBASE   /EJ ON      NM000R$  000000000004100000000000410000000000041000000000004100000000000410000000000000000000000000000003000000000000025000000000000001025000000000000114102016051600000010000000000000BRBBASACNOR3257
012016031682BBASQ45     080BBASE   /EJ ON      NM000R$  000000000013000000000001300000000000130000000000013000000000001300000000000000000000000000000001000000000000000300000000000000039000000000000151602016051600000010000000000000BRBBASACNOR3257
012016031682BBASQ47     080BBASE FM/EJ ON      NM000R$  000000000025700000000002630000000000251000000000025400000000002510000000000000000000000000000012000000000000024000000000000006108000000000000174102016051600000010000000000000BRBBASACNOR3257
012016031682BBASQ49     080BBASE   /EJ ON      NM000R$  000000000042500000000004250000000000425000000000042500000000004250000000000000000000000000000001000000000000002100000000000000892500000000000194102016051600000010000000000000BRBBASACNOR3257
012016031682BBASQ67     080BBASE   /EJ ON      NM000R$  000000000020900000000002090000000000204000000000020500000000002050000000000000000000000000000008000000000000054000000000000011079700000000000161602016051600000010000000000000BRBBASACNOR3253
012016031682BBASQ7      080BBASE FM/EJ ON      NM000R$  000000000026400000000002640000000000225000000000024000000000002250000000000000000000000000000016000000000000066000000000000015858000000000000169102016051600000010000000000000BRBBASACNOR3257
012016031682BBASQ70     080BBASE   /EJ ON      NM000R$  000000000049500000000004950000000000495000000000049500000000004950000000000000000000000000000001000000000000002100000000000001039500000000000204102016051600000010000000000000BRBBASACNOR3251
012016031682BBASQ77     080BBASE   /EJ ON      NM000R$  000000000011700000000002350000000000117000000000014000000000002290000000000000000000000000000010000000000000252000000000000035314000000000000166602016051600000010000000000000BRBBASACNOR3253
012016031682BBASQ80     080BBASE   /EJ ON      NM000R$  000000000044200000000004420000000000442000000000044200000000004420000000000000000000000000000001000000000000002100000000000000928200000000000196602016051600000010000000000000BRBBASACNOR3255
012016031682BBASR3      080BBASE       ON      NM000R$  000000000038000000000003800000000000380000000000038000000000003800000000000000000000000000000002000000000000007500000000000002850000000000000186602016062000000010000000000000BRBBASACNOR3259
012016031682BBASR45     080BBASE   /EJ ON      NM000R$  000000000018000000000001800000000000180000000000018000000000001800000000000000000000000000000001000000000000007500000000000001350000000000000154102016062000000010000000000000BRBBASACNOR3258
012016031682BBASX16     080BBASE   /EJ ON      NM000R$  000000000029500000000003000000000000295000000000029500000000003000000000000130000000000030500002000000000000001100000000000000325000000000000166102016121900000010000000000000BRBBASACNOR3257
012016031602BBDC3       010BRADESCO    ON      N1   R$  000000000276000000000027800000000002655000000000271400000000027310000000002731000000000273411572000000000002441200000000006627953700000000000000009999123100000010000000000000BRBBDCACNOR1645
012016031696BBDC3F      020BRADESCO    ON      N1   R$  000000000275500000000029000000000002663000000000273700000000027280000000002710000000000272800157000000000000001388000000000003798235000000000000009999123100000010000000000000BRBBDCACNOR1645
012016031602BBDC4       010BRADESCO    PN      N1   R$  000000000246800000000024830000000002360000000000241600000000024640000000002455000000000246547152000000000021826000000000052749055600000000000000009999123100000010000000000000BRBBDCACNPR8645
012016031696BBDC4F      020BRADESCO    PN      N1   R$  000000000248300000000024850000000002362000000000242000000000024600000000002460000000000248000421000000000000009409000000000022783156000000000000009999123100000010000000000000BRBBDCACNPR8645
012016031662BBDC4T      030BRADESCO    PN      N1016R$  000000000248300000000024840000000002372000000000242900000000024780000000000000000000000000000038000000000000066400000000000161288425000000000000009999123100000010000000000000BRBBDCACNPR8645
012016031662BBDC4T      030BRADESCO    PN      N1030R$  000000000246400000000024650000000002389000000000242000000000024030000000000000000000000000000008000000000000004200000000000010165311000000000000009999123100000010000000000000BRBBDCACNPR8645
012016031662BBDC4T      030BRADESCO    PN      N1044R$  000000000239700000000023980000000002397000000000239700000000023980000000000000000000000000000002000000000000000500000000000001198526000000000000009999123100000010000000000000BRBBDCACNPR8645
012016031662BBDC4T      030BRADESCO    PN      N1061R$  000000000248700000000025130000000002461000000000247800000000025130000000000000000000000000000008000000000000011500000000000028499084000000000000009999123100000010000000000000BRBBDCACNPR8645
012016031662BBDC4T      030BRADESCO    PN      N1090R$  000000000253400000000025350000000002458000000000251900000000024590000000000000000000000000000004000000000000002500000000000006297592000000000000009999123100000010000000000000BRBBDCACNPR8645
012016031662BBDC4T      030BRADESCO    PN      N1120R$  000000000257300000000025740000000002573000000000257300000000025740000000000000000000000000000002000000000000000300000000000000771964000000000000009999123100000010000000000000BRBBDCACNPR8645
012016031678BBDCB56     070BBDCE       PN      N1000R$  000000000039900000000003990000000000399000000000039900000000003990000000000000000000000000000002000000000000051000000000000020349000000000000266902017022000000010000000000000BRBBDCACNPR8644
012016031678BBDCC1      070BBDCE       PN      N1000R$  000000000010800000000001080000000000050000000000006800000000000950000000000000000000000000000049000000000000081800000000000005588500000000000238402016032100000010000000000000BRBBDCACNPR8635
012016031678BBDCC12     070BBDC        PN      N1000R$  000000000002900000000000330000000000011000000000001600000000000250000000000000000000000000000070000000000000258370000000000004224520000000000252602016032100000010000000000000BRBBDCACNPR8629
012016031678BBDCC19     070BBDCE       PN      N1000R$  000000000000100000000000010000000000001000000000000100000000000010000000000000000000000000000001000000000000001100000000000000001100000000000300502016032100000010000000000000BRBBDCACNPR8628
012016031678BBDCC20     070BBDC        PN      N1000R$  000000000050000000000005220000000000415000000000044900000000004800000000000455000000000000000065000000000000193500000000000086900800000000000195702016032100000010000000000000BRBBDCACNPR8640
012016031678BBDCC21     070BBDC        PN      N1000R$  000000000040500000000004210000000000330000000000037300000000003950000000000330000000000000000097000000000000135300000000000050474500000000000205702016032100000010000000000000BRBBDCACNPR8640
012016031678BBDCC23     070BBDC        PN      N1000R$  000000000020000000000002000000000000125000000000018300000000001980000000000106000000000000000040000000000000035300000000000006478200000000000225902016032100000010000000000000BRBBDCACNPR8636
012016031678BBDCC27     070BBDCE       PN      N1000R$  000000000057000000000005700000000000400000000000041800000000004800000000000000000000000000000008000000000000025100000000000010497000000000000198202016032100000010000000000000BRBBDCACNPR8643
012016031678BBDCC40     070BBDC        PN      N1000R$  000000000045000000000004530000000000370000000000039500000000003800000000000350000000000000000015000000000000010200000000000004036100000000000200702016032100000010000000000000BRBBDCACNPR8640
012016031678BBDCC42     070BBDC        PN      N1000R$  000000000024700000000002470000000000178000000000021900000000002430000000000220000000000029000010000000000000007000000000000001537200000000000220902016032100000010000000000000BRBBDCACNPR8640
012016031678BBDCC43     070BBDCE       PN      N1000R$  000000000020000000000002390000000000150000000000017900000000002000000000000200000000000000000030000000000000039700000000000007140400000000000223402016032100000010000000000000BRBBDCACNPR8636
012016031678BBDCC49     070BBDC        PN      N1000R$  000000000007400000000001260000000000074000000000010500000000001240000000000001000000000000000004000000000000009360000000000000982980000000000235902016032100000010000000000000BRBBDCACNPR8629
012016031678BBDCC5      070BBDC        PN      N1000R$  000000000000300000000000030000000000003000000000000300000000000030000000000001000000000000000005000000000000001500000000000000004500000000000277602016032100000010000000000000BRBBDCACNPR8627
012016031678BBDCC51     070BBDCE       PN      N1000R$  000000000038000000000003800000000000309000000000033600000000003400000000000240000000000000000033000000000000026200000000000008814000000000000208202016032100000010000000000000BRBBDCACNPR8638
012016031678BBDCC54     070BBDC        PN      N1000R$  000000000005800000000000670000000000027000000000003500000000000620000000000060000000000000000043000000000000203310000000000007239100000000000244202016032100000010000000000000BRBBDCACNPR8629
012016031678BBDCC58     070BBDCE       PN      N1000R$  000000000055000000000005500000000000550000000000055000000000005500000000000000000000000000000001000000000000001000000000000000550000000000000188202016032100000010000000000000BRBBDCACNPR8643
012016031678BBDCC60     070BBDCE       PN      N1000R$  000000000050000000000005000000000000450000000000047500000000004500000000000000000000000000000002000000000000002000000000000000950000000000000193202016032100000010000000000000BRBBDCACNPR8640
012016031678BBDCC65     070BBDCE       PN      N1000R$  000000000007500000000000750000000000036000000000003900000000000360000000000000000000000000000008000000000000039800000000000001588800000000000243202016032100000010000000000000BRBBDCACNPR8638
012016031678BBDCC7      070BBDC        PN      N1000R$  000000000060000000000006000000000000530000000000058100000000005300000000000000000000000000000006000000000000005000000000000002908000000000000185702016032100000010000000000000BRBBDCACNPR8638
012016031678BBDCC72     070BBDC        PN      N1000R$  000000000034500000000003640000000000269000000000032700000000003640000000000265000000000000000108000000000000060500000000000019811700000000000210902016032100000010000000000000BRBBDCACNPR8639
012016031678BBDCC76     070BBDCE       PN      N1000R$  000000000002500000000000300000000000009000000000002000000000000190000000000000000000000003400054000000000000131600000000000002666500000000000255102016032100000010000000000000BRBBDCACNPR8636
012016031678BBDCC81     070BBDCE       PN      N1000R$  000000000035000000000003500000000000350000000000035000000000003500000000000221000000000000000001000000000000005000000000000001750000000000000203202016032100000010000000000000BRBBDCACNPR8639
012016031678BBDCC82     070BBDC        PN      N1000R$  000000000028500000000003420000000000249000000000028400000000003160000000000276000000000034200105000000000000043300000000000012324300000000000215902016032100000010000000000000BRBBDCACNPR8639
012016031678BBDCC84     070BBDC        PN      N1000R$  000000000000600000000000060000000000003000000000000500000000000050000000000000000000000001400026000000000000161120000000000000840520000000000269202016032100000010000000000000BRBBDCACNPR8627
012016031678BBDCC9      070BBDC        PN      N1000R$  000000000057000000000005700000000000520000000000054000000000005200000000000002000000000000000002000000000000000500000000000000270000000000000190702016032100000010000000000000BRBBDCACNPR8640
012016031678BBDCC93     070BBDCE       PN      N1000R$  000000000019200000000001920000000000138000000000013800000000001380000000000000000000000000000006000000000000210700000000000029165600000000000228402016032100000010000000000000BRBBDCACNPR8636
012016031678BBDCC97     070BBDCE       ON      N1000R$  000000000047500000000004750000000000475000000000047500000000004750000000000000000000000000000002000000000000025000000000000011875000000000000225902016032100000010000000000000BRBBDCACNOR1642
012016031678BBDCC98     070BBDC        PN      N1000R$  000000000059500000000005950000000000575000000000058600000000005750000000000555000000000000000003000000000000008700000000000005102500000000000180702016032100000010000000000000BRBBDCACNPR8639
012016031678BBDCD1      070BBDC        PN      N1000R$  000000000063000000000006300000000000625000000000062700000000006250000000000000000000000000000002000000000000001800000000000001130000000000000186202016041800000010000000000000BRBBDCACNPR8638
012016031678BBDCD11     070BBDCE       PN      N1000R$  000000000019000000000001900000000000170000000000018200000000001800000000000000000000000000000003000000000000002200000000000000401000000000000235302016041800000010000000000000BRBBDCACNPR8629
012016031678BBDCD12     070BBDCE       PN      N1000R$  000000000019600000000001960000000000126000000000014000000000001800000000000155000000000000000024000000000000045300000000000006344600000000000239502016041800000010000000000000BRBBDCACNPR8629
012016031678BBDCD14     070BBDC  FM    PN      N1000R$  000000000002800000000000340000000000017000000000002200000000000280000000000000000000000004200070000000000000242300000000000005567400000000000291602016041800000010000000000000BRBBDCACNPR8629
012016031678BBDCD15     070BBDC        PN      N1000R$  000000000002200000000000280000000000015000000000002000000000000150000000000000000000000000000169000000000000203940000000000004080620000000000295702016041800000010000000000000BRBBDCACNPR8629
012016031678BBDCD16     070BBDC        PN      N1000R$  000000000002300000000000250000000000012000000000001600000000000200000000000016000000000002100024000000000000051100000000000000836300000000000299902016041800000010000000000000BRBBDCACNPR8629
012016031678BBDCD2      070BBDC        PN      N1000R$  000000000039800000000003980000000000398000000000039800000000003980000000000050000000000044000001000000000000001000000000000000398000000000000211202016041800000010000000000000BRBBDCACNPR8637
012016031678BBDCD24     070BBDC        PN      N1000R$  000000000014800000000001600000000000095000000000011900000000001200000000000000000000000029000061000000000000153100000000000018345100000000000247202016041800000010000000000000BRBBDCACNPR8645
012016031678BBDCD25     070BBDC        PN      N1000R$  000000000012600000000001360000000000078000000000010400000000001150000000000090000000000013000036000000000000083000000000000008632300000000000252202016041800000010000000000000BRBBDCACNPR8645
012016031678BBDCD3      070BBDCE       PN      N1000R$  000000000050800000000005220000000000412000000000044800000000004700000000000000000000000000000060000000000000182600000000000081837900000000000198702016041800000010000000000000BRBBDCACNPR8638
012016031678BBDCD30     070BBDCE FM    PN      N1000R$  000000000005400000000000540000000000044000000000004700000000000520000000000012000000000000000022000000000000038600000000000001821900000000000269502016041800000010000000000000BRBBDCACNPR8638
012016031678BBDCD34     070BBDC        PN      N1000R$  000000000045300000000004530000000000453000000000045300000000004530000000000400000000000000000001000000000000000100000000000000045300000000000196202016041800000010000000000000BRBBDCACNPR8640
012016031678BBDCD38     070BBDC        PN      N1000R$  000000000001100000000000260000000000011000000000001800000000000260000000000012000000000002600005000000000000008000000000000000145000000000000304902016041800000010000000000000BRBBDCACNPR8631
012016031678BBDCD4      070BBDC        PN      N1000R$  000000000028500000000002850000000000185000000000021600000000002470000000000200000000000000000027000000000000019900000000000004306700000000000228702016041800000010000000000000BRBBDCACNPR8633
012016031678BBDCD43     070BBDC        PN      N1000R$  000000000005700000000000660000000000037000000000005500000000000580000000000000000000000006000219000000000000316800000000000017727900000000000272002016041800000010000000000000BRBBDCACNPR8631
012016031678BBDCD46     070BBDCE       PN      N1000R$  000000000005100000000000510000000000051000000000005100000000000510000000000000000000000000000001000000000000010000000000000000510000000000000274502016041800000010000000000000BRBBDCACNPR8631
012016031678BBDCD53     070BBDC        PN      N1000R$  000000000027000000000003100000000000270000000000028700000000002850000000000000000000000000000024000000000000046200000000000013271000000000000223702016041800000010000000000000BRBBDCACNPR8636
012016031678BBDCD57     070BBDC  FM    PN      N1000R$  000000000009500000000001000000000000054000000000007100000000000840000000000000000000000012200141000000000000260100000000000018469300000000000262002016041800000010000000000000BRBBDCACNPR8631
012016031678BBDCD58     070BBDC  FM    PN      N1000R$  000000000003500000000000430000000000032000000000003300000000000430000000000000000000000000000019000000000000031700000000000001059000000000000277002016041800000010000000000000BRBBDCACNPR8637
012016031678BBDCD6      070BBDC        PN      N1000R$  000000000034000000000003400000000000308000000000032600000000003400000000000000000000000000000006000000000000005100000000000001665500000000000216202016041800000010000000000000BRBBDCACNPR8642
012016031678BBDCD61     070BBDC        PN      N1000R$  000000000043000000000004300000000000358000000000040300000000004270000000000000000000000000000021000000000000028700000000000011571700000000000206202016041800000010000000000000BRBBDCACNPR8638
012016031678BBDCD63     070BBDCE       PN      N1000R$  000000000030000000000003000000000000235000000000025100000000002800000000000230000000000000000014000000000000009100000000000002288500000000000221202016041800000010000000000000BRBBDCACNPR8636
012016031678BBDCD64     070BBDC        PN      N1000R$  000000000017400000000001740000000000122000000000013300000000001580000000000000000000000000000015000000000000093000000000000012457100000000000242002016041800000010000000000000BRBBDCACNPR8643
012016031678BBDCD69     070BBDCE       PN      N1000R$  000000000003200000000000430000000000025000000000003800000000000350000000000000000000000004800028000000000000039300000000000001516300000000000284502016041800000010000000000000BRBBDCACNPR8638
012016031678BBDCD72     070BBDCE       PN      N1000R$  000000000026000000000002600000000000260000000000026000000000002600000000000000000000000025000002000000000000400000000000000104000000000000000347302017041700000010000000000000BRBBDCACNPR8645
012016031678BBDCD75     070BBDCE       PN      N1000R$  000000000016400000000001700000000000107000000000012900000000001600000000000000000000000000000019000000000000031000000000000004017900000000000244502016041800000010000000000000BRBBDCACNPR8636
012016031678BBDCD85     070BBDCE FM    PN      N1000R$  000000000013300000000001530000000000087000000000011000000000001280000000000000000000000026000154000000000000247500000000000027298500000000000249502016041800000010000000000000BRBBDCACNPR8636
012016031678BBDCD86     070BBDCE       PN      N1000R$  000000000012000000000001200000000000072000000000009000000000001090000000000000000000000011500006000000000000012000000000000001081400000000000254502016041800000010000000000000BRBBDCACNPR8636
012016031678BBDCD92     070BBDCE       PN      N1000R$  000000000028300000000003160000000000283000000000030000000000003160000000000000000000000000000002000000000000108100000000000032509600000000000327302017041700000010000000000000BRBBDCACNPR8645
012016031678BBDCE15     070BBDC        PN      N1000R$  000000000003900000000000390000000000032000000000003400000000000320000000000001000000000030500004000000000000040000000000000001370000000000000302402016051600000010000000000000BRBBDCACNPR8632
012016031678BBDCE32     070BBDC        PN      N1000R$  000000000027000000000002700000000000261000000000026400000000002630000000000000000000000000000004000000000000003000000000000000794000000000000227402016051600000010000000000000BRBBDCACNPR8644
012016031678BBDCE34     070BBDC        PN      N1000R$  000000000022700000000002270000000000227000000000022700000000002270000000000000000000000000000001000000000000001000000000000000227000000000000242402016051600000010000000000000BRBBDCACNPR8644
012016031678BBDCE36     070BBDC  FM    PN      N1000R$  000000000015500000000001730000000000120000000000015200000000001230000000000000000000000000000009000000000000016300000000000002483400000000000257402016051600000010000000000000BRBBDCACNPR8638
012016031678BBDCE42     070BBDC        PN      N1000R$  000000000037500000000003750000000000344000000000034700000000003440000000000000000000000000000011000000000000014900000000000005178500000000000217402016051600000010000000000000BRBBDCACNPR8639
012016031678BBDCE47     070BBDCE       PN      N1000R$  000000000014400000000001440000000000144000000000014400000000001440000000000000000000000000000001000000000000002100000000000000302400000000000264902016051600000010000000000000BRBBDCACNPR8639
012016031678BBDCE6      070BBDCE       PN      N1000R$  000000000018500000000001850000000000185000000000018500000000001850000000000000000000000000000002000000000000003900000000000000721500000000000254902016051600000010000000000000BRBBDCACNPR8632
012016031678BBDCE67     070BBDC        PN      N1000R$  000000000014100000000001410000000000141000000000014100000000001410000000000000000000000000000001000000000000002100000000000000296100000000000262402016051600000010000000000000BRBBDCACNPR8632
012016031678BBDCE76     070BBDCE FM    PN      N1000R$  000000000019100000000002070000000000143000000000017800000000001860000000000000000000000000000024000000000000042100000000000007498900000000000249902016051600000010000000000000BRBBDCACNPR8631
012016031678BBDCE86     070BBDC        PN      N1000R$  000000000023000000000002450000000000170000000000022000000000002450000000000000000000000000000007000000000000003100000000000000682200000000000237402016051600000010000000000000BRBBDCACNPR8631
012016031678BBDCE89     070BBDC  FM    PN      N1000R$  000000000012200000000001350000000000122000000000013000000000001350000000000000000000000000000006000000000000012400000000000001619400000000000267402016051600000010000000000000BRBBDCACNPR8630
012016031678BBDCE9      070BBDCE FM    PN      N1000R$  000000000009700000000000970000000000080000000000008800000000000800000000000000000000000000000002000000000000004000000000000000354000000000000279902016051600000010000000000000BRBBDCACNPR8645
012016031678BBDCE90     070BBDC        PN      N1000R$  000000000010100000000001010000000000067000000000006700000000000670000000000000000000000011000003000000000000990000000000000067180000000000000277402016051600000010000000000000BRBBDCACNPR8630
012016031678BBDCE91     070BBDC  FM    PN      N1000R$  000000000007800000000000780000000000054000000000006600000000000690000000000000000000000009000005000000000000004300000000000000286900000000000287402016051600000010000000000000BRBBDCACNPR8630
012016031678BBDCF27     070BBDCE       ON      N1000R$  000000000004000000000000400000000000040000000000004000000000000400000000000000000000000000000002000000000000100000000000000004000000000000000352002016062000000010000000000000BRBBDCACNOR1632
012016031678BBDCF57     070BBDCE       PN      N1000R$  000000000013800000000001380000000000138000000000013800000000001380000000000000000000000000000001000000000000002200000000000000303600000000000265102016062000000010000000000000BRBBDCACNPR8632
012016031678BBDCF62     070BBDCE       PN      N1000R$  000000000028400000000002840000000000284000000000028400000000002840000000000000000000000000000001000000000000100000000000000028400000000000000322502017061900000010000000000000BRBBDCACNPR8645
012016031678BBDCF81     070BBDC        PN      N1000R$  000000000036500000000003660000000000365000000000036500000000003660000000000000000000000000000002000000000000100000000000000036530000000000000217602016062000000010000000000000BRBBDCACNPR8643
012016031678BBDCF85     070BBDCE       PN      N1000R$  000000000039100000000004050000000000269000000000030000000000003000000000000000000000000000000006000000000001172200000000000351670800000000000312502017061900000010000000000000BRBBDCACNPR8645
012016031678BBDCF96     070BBDCE       ON      N1000R$  000000000035000000000003500000000000287000000000030400000000003100000000000000000000000000000003000000000001954100000000000595333000000000000362502017061900000010000000000000BRBBDCACNOR1645
012016031678BBDCG50     070BBDC        PN      N1000R$  000000000032300000000003230000000000323000000000032300000000003230000000000000000000000000000001000000000000050000000000000016150000000000000244102016071800000010000000000000BRBBDCACNPR8635
012016031678BBDCI78     070BBDCE       PN      N1000R$  000000000040000000000004000000000000400000000000040000000000004000000000000000000000000000000002000000000000051000000000000020400000000000000282502017091800000010000000000000BRBBDCACNPR8645
012016031682BBDCN14     080BBDCE       PN      N1000R$  000000000002700000000000270000000000027000000000002700000000000270000000000000000000000000000002000000000000051000000000000001377000000000000166902017022000000010000000000000BRBBDCACNPR8643
012016031682BBDCN17     080BBDCE       PN      N1000R$  000000000009300000000000930000000000093000000000009300000000000930000000000000000000000000000002000000000000051000000000000004743000000000000206902017022000000010000000000000BRBBDCACNPR8643
012016031682BBDCO1      080BBDCE       PN      N1000R$  000000000006100000000000610000000000061000000000006100000000000610000000000000000000000000000003000000000000009100000000000000555100000000000238402016032100000010000000000000BRBBDCACNPR8635
012016031682BBDCO12     080BBDCE       PN      N1000R$  000000000010500000000001050000000000103000000000010300000000001030000000000000000000000000000005000000000000005200000000000000535900000000000252602016032100000010000000000000BRBBDCACNPR8629
012016031682BBDCO20     080BBDCE       PN      N1000R$  000000000000200000000000020000000000001000000000000100000000000010000000000000000000000000300003000000000000003500000000000000006000000000000195702016032100000010000000000000BRBBDCACNPR8640
012016031682BBDCO23     080BBDCE       PN      N1000R$  000000000001500000000000150000000000015000000000001500000000000150000000000000000000000001400001000000000000001000000000000000015000000000000225902016032100000010000000000000BRBBDCACNPR8636
012016031682BBDCO41     080BBDCE       PN      N1000R$  000000000000800000000000080000000000008000000000000800000000000080000000000000000000000003200001000000000000003000000000000000024000000000000218402016032100000010000000000000BRBBDCACNPR8642
012016031682BBDCO42     080BBDCE       PN      N1000R$  000000000000600000000000060000000000006000000000000600000000000060000000000005000000000003000001000000000000002000000000000000012000000000000220902016032100000010000000000000BRBBDCACNPR8640
012016031682BBDCO43     080BBDCE       PN      N1000R$  000000000001600000000000160000000000011000000000001100000000000110000000000000000000000006000003000000000000022000000000000000252000000000000223402016032100000010000000000000BRBBDCACNPR8636
012016031682BBDCO51     080BBDCE       PN      N1000R$  000000000000500000000000050000000000005000000000000500000000000050000000000000000000000000700002000000000000001500000000000000007500000000000208202016032100000010000000000000BRBBDCACNPR8638
012016031682BBDCO54     080BBDCE       PN      N1000R$  000000000006500000000000950000000000045000000000005400000000000950000000000000000000000009400030000000000000100000000000000005486820000000000244202016032100000010000000000000BRBBDCACNPR8629
012016031682BBDCO65     080BBDCE       PN      N1000R$  000000000004300000000000900000000000036000000000006700000000000360000000000000000000000000000039000000000000181500000000000012227200000000000243202016032100000010000000000000BRBBDCACNPR8638
012016031682BBDCO66     080BBDCE       PN      N1000R$  000000000039000000000003900000000000380000000000038300000000003800000000000000000000000000000012000000000000029000000000000011120000000000000285902016032100000010000000000000BRBBDCACNPR8627
012016031682BBDCO72     080BBDCE       PN      N1000R$  000000000000600000000000060000000000006000000000000600000000000060000000000001000000000003800001000000000000002000000000000000012000000000000210902016032100000010000000000000BRBBDCACNPR8639
012016031682BBDCO74     080BBDCE       PN      N1000R$  000000000002200000000000400000000000016000000000002000000000000160000000000000000000000003000009000000000000039000000000000000780000000000000233402016032100000010000000000000BRBBDCACNPR8639
012016031682BBDCO8      080BBDCE       PN      N1000R$  000000000000100000000000010000000000001000000000000100000000000010000000000000000000000000000001000000000000000400000000000000000400000000000175702016032100000010000000000000BRBBDCACNPR8640
012016031682BBDCO93     080BBDCE       PN      N1000R$  000000000001500000000000150000000000015000000000001500000000000150000000000000000000000001400001000000000000000400000000000000006000000000000228402016032100000010000000000000BRBBDCACNPR8636
012016031682BBDCP1      080BBDCE       PN      N1000R$  000000000000900000000000090000000000006000000000000700000000000060000000000006000000000000700046000000000000424300000000000003205600000000000186202016041800000010000000000000BRBBDCACNPR8638
012016031682BBDCP10     080BBDCE       PN      N1000R$  000000000007500000000000930000000000067000000000009000000000000670000000000020000000000000000115000000000000239700000000000021635300000000000231202016041800000010000000000000BRBBDCACNPR8629
012016031682BBDCP11     080BBDCE       PN      N1000R$  000000000008800000000001130000000000088000000000011000000000001090000000000000000000000000000291000000000000102660000000000011314580000000000235302016041800000010000000000000BRBBDCACNPR8629
012016031682BBDCP12     080BBDCE FM    PN      N1000R$  000000000010700000000001330000000000091000000000010800000000000910000000000000000000000000000238000000000000554300000000000059884600000000000239502016041800000010000000000000BRBBDCACNPR8629
012016031682BBDCP13     080BBDCE       PN      N1000R$  000000000004200000000000500000000000042000000000004500000000000500000000000000000000000030000004000000000000004200000000000000190000000000000218702016041800000010000000000000BRBBDCACNPR8636
012016031682BBDCP15     080BBDCE       PN      N1000R$  000000000053000000000005300000000000530000000000053000000000005300000000000000000000000054100001000000000000000100000000000000053000000000000295702016041800000010000000000000BRBBDCACNPR8629
012016031682BBDCP17     080BBDCE       PN      N1000R$  000000000013200000000001320000000000132000000000013200000000001320000000000000000000000000000002000000000000400000000000000052800000000000000197302017041700000010000000000000BRBBDCACNPR8644
012016031682BBDCP2      080BBDCE       PN      N1000R$  000000000003600000000000360000000000026000000000003100000000000260000000000000000000000005000018000000000000052400000000000001648700000000000211202016041800000010000000000000BRBBDCACNPR8637
012016031682BBDCP24     080BBDCE       PN      N1000R$  000000000013500000000001680000000000135000000000014900000000001500000000000000000000000000000011000000000000009300000000000001391300000000000247202016041800000010000000000000BRBBDCACNPR8645
012016031682BBDCP25     080BBDCE       PN      N1000R$  000000000016700000000001800000000000162000000000016900000000001800000000000000000000000000000007000000000000006300000000000001068900000000000252202016041800000010000000000000BRBBDCACNPR8645
012016031682BBDCP26     080BBDCE       PN      N1000R$  000000000038000000000003800000000000380000000000038000000000003800000000000000000000000000000001000000000000058100000000000022078000000000000262302017041700000010000000000000BRBBDCACNPR8645
012016031682BBDCP30     080BBDCE FM    PN      N1000R$  000000000029500000000003400000000000262000000000030000000000002770000000000000000000000031400093000000000000141400000000000042552600000000000269502016041800000010000000000000BRBBDCACNPR8638
012016031682BBDCP4      080BBDCE       PN      N1000R$  000000000007100000000000800000000000060000000000007100000000000640000000000000000000000011800064000000000000137500000000000009890000000000000228702016041800000010000000000000BRBBDCACNPR8633
012016031682BBDCP42     080BBDCE       PN      N1000R$  000000000003600000000000360000000000036000000000003600000000000360000000000000000000000000000011000000000000012300000000000000442800000000000213702016041800000010000000000000BRBBDCACNPR8636
012016031682BBDCP43     080BBDCE       PN      N1000R$  000000000034000000000003400000000000340000000000034000000000003400000000000266000000000035000001000000000000000100000000000000034000000000000272002016041800000010000000000000BRBBDCACNPR8631
012016031682BBDCP5      080BBDCE       PN      N1000R$  000000000002300000000000230000000000010000000000001700000000000100000000000000000000000002400009000000000000004000000000000000069000000000000191202016041800000010000000000000BRBBDCACNPR8642
012016031682BBDCP50     080BBDCE       PN      N1000R$  000000000040700000000004600000000000407000000000045400000000004600000000000000000000000000000003000000000000450000000000000204350000000000000264802017041700000010000000000000BRBBDCACNPR8645
012016031682BBDCP53     080BBDCE       PN      N1000R$  000000000005600000000000640000000000051000000000006200000000000540000000000043000000000000000301000000000000216900000000000013564300000000000223702016041800000010000000000000BRBBDCACNPR8636
012016031682BBDCP57     080BBDCE FM    PN      N1000R$  000000000023700000000002830000000000212000000000024500000000002230000000000000000000000000000105000000000000165700000000000040729400000000000262002016041800000010000000000000BRBBDCACNPR8631
012016031682BBDCP58     080BBDCE       PN      N1000R$  000000000038700000000003870000000000334000000000033600000000003340000000000300000000000039500007000000000000004100000000000001378700000000000277002016041800000010000000000000BRBBDCACNPR8637
012016031682BBDCP61     080BBDCE       PN      N1000R$  000000000001700000000000170000000000017000000000001700000000000170000000000000000000000000000001000000000000001000000000000000017000000000000206202016041800000010000000000000BRBBDCACNPR8638
012016031682BBDCP63     080BBDCE       PN      N1000R$  000000000005700000000000570000000000057000000000005700000000000570000000000000000000000000000001000000000000000500000000000000028500000000000221202016041800000010000000000000BRBBDCACNPR8636
012016031682BBDCP64     080BBDCE       PN      N1000R$  000000000011000000000001420000000000110000000000012000000000001420000000000000000000000000000013000000000000010000000000000001203200000000000242002016041800000010000000000000BRBBDCACNPR8643
012016031682BBDCP71     080BBDCE       PN      N1000R$  000000000002000000000000210000000000013000000000001700000000000170000000000003000000000002400026000000000000083000000000000001462000000000000203702016041800000010000000000000BRBBDCACNPR8639
012016031682BBDCP75     080BBDCE       PN      N1000R$  000000000014700000000001630000000000109000000000016000000000001090000000000000000000000000000074000000000000105100000000000016863000000000000244502016041800000010000000000000BRBBDCACNPR8636
012016031682BBDCP85     080BBDCE FM    PN      N1000R$  000000000015700000000001920000000000134000000000017100000000001460000000000000000000000040000142000000000000196500000000000033720500000000000249502016041800000010000000000000BRBBDCACNPR8636
012016031682BBDCP86     080BBDCE       PN      N1000R$  000000000018000000000002240000000000168000000000018200000000002240000000000000000000000000000008000000000000004100000000000000749900000000000254502016041800000010000000000000BRBBDCACNPR8636
012016031682BBDCQ36     080BBDCE FM    PN      N1000R$  000000000021900000000002710000000000218000000000024800000000002190000000000000000000000000000021000000000000040900000000000010158600000000000257402016051600000010000000000000BRBBDCACNPR8638
012016031682BBDCQ47     080BBDCE       PN      N1000R$  000000000027400000000002740000000000270000000000027200000000002700000000000000000000000000000002000000000000004200000000000001142400000000000264902016051600000010000000000000BRBBDCACNPR8639
012016031682BBDCQ67     080BBDCE       PN      N1000R$  000000000024900000000002490000000000249000000000024900000000002490000000000000000000000000000001000000000000000100000000000000024900000000000262402016051600000010000000000000BRBBDCACNPR8632
012016031682BBDCQ72     080BBDCE       PN      N1000R$  000000000005500000000000550000000000055000000000005500000000000550000000000000000000000000000001000000000000965000000000000053075000000000000212402016051600000010000000000000BRBBDCACNPR8636
012016031682BBDCQ76     080BBDCE FM    PN      N1000R$  000000000018000000000002170000000000180000000000019100000000001850000000000000000000000000000005000000000000008100000000000001553800000000000249902016051600000010000000000000BRBBDCACNPR8631
012016031682BBDCQ86     080BBDCE FM    PN      N1000R$  000000000013300000000001330000000000120000000000012600000000001200000000000000000000000000000009000000000000018000000000000002280000000000000237402016051600000010000000000000BRBBDCACNPR8631
012016031682BBDCQ89     080BBDCE FM    PN      N1000R$  000000000028300000000003400000000000276000000000030800000000002810000000000000000000000000000019000000000000036200000000000011164600000000000267402016051600000010000000000000BRBBDCACNPR8630
012016031682BBDCQ96     080BBDCE       PN      N1000R$  000000000012500000000001260000000000125000000000012500000000001260000000000000000000000000000002000000000000965000000000000121300500000000000232402016051600000010000000000000BRBBDCACNPR8631
012016031682BBDCR59     080BBDCE       PN      N1000R$  000000000004200000000000540000000000042000000000005300000000000540000000000000000000000000000003000000000000002200000000000000117200000000000192602016062000000010000000000000BRBBDCACNPR8645
012016031682BBDCR61     080BBDCE       ON      N1000R$  000000000010400000000001040000000000085000000000009200000000000960000000000000000000000000000004000000000001954100000000000181260400000000000215002017061900000010000000000000BRBBDCACNOR1645
012016031682BBDCR81     080BBDCE       PN      N1000R$  000000000010900000000001090000000000109000000000010900000000001090000000000000000000000000000001000000000000002200000000000000239800000000000217602016062000000010000000000000BRBBDCACNPR8643
012016031682BBDCR83     080BBDCE       PN      N1000R$  000000000011000000000001100000000000081000000000008100000000000810000000000000000000000000000002000000000001171800000000000094918700000000000187502017061900000010000000000000BRBBDCACNPR8645
012016031682BBDCR84     080BBDCE       PN      N1000R$  000000000025000000000003770000000000250000000000037600000000003760000000000000000000000000000004000000000001171900000000000440848200000000000235002017061900000010000000000000BRBBDCACNPR8645
012016031682BBDCR89     080BBDCE       PN      N1000R$  000000000011900000000001190000000000074000000000007400000000000740000000000000000000000000000005000000000000100300000000000007484900000000000192502017061900000010000000000000BRBBDCACNPR8645
012016031682BBDCR94     080BBDCE       PN      N1000R$  000000000029500000000003540000000000295000000000035300000000003540000000000000000000000000000003000000000000100200000000000035459000000000000242502017061900000010000000000000BRBBDCACNPR8645
012016031682BBDCR97     080BBDCE       ON      N1000R$  000000000031000000000004000000000000310000000000039200000000004000000000000000000000000000000005000000000001954200000000000766821900000000000272502017061900000010000000000000BRBBDCACNOR1645
012016031682BBDCS51     080BBDCE       PN      N1000R$  000000000008000000000000800000000000080000000000008000000000000800000000000000000000000000000001000000000000050000000000000004000000000000000216602016071800000010000000000000BRBBDCACNPR8644
012016031682BBDCS71     080BBDCE       PN      N1000R$  000000000004900000000000490000000000049000000000004900000000000490000000000000000000000000000001000000000000050000000000000002450000000000000191602016071800000010000000000000BRBBDCACNPR8643
012016031682BBDCU72     080BBDCE       PN      N1000R$  000000000008500000000000850000000000085000000000008500000000000850000000000000000000000000000002000000000000051000000000000004335000000000000222502017091800000010000000000000BRBBDCACNPR8645
012016031682BBDCU97     080BBDCE       PN      N1000R$  000000000003300000000000330000000000033000000000003300000000000330000000000000000000000000000002000000000000051000000000000001683000000000000177502017091800000010000000000000BRBBDCACNPR8645
012016031612BBFI11B     010FII BB PROGRCI      MB   R$  000000023000000000002300000000000224003000000022936700000002245000000000224500000000023000000005000000000000000031000000000007110378000000000000009999123100000010000000000000BRBBFICTF006228
012016031612BBPO11      010FII BB PRGIICI           R$  000000000975100000000098390000000009740000000000977100000000097760000000009776000000000983900388000000000000016281000000000159085235000000000000009999123100000010000000000000BRBBPOCTF003140
012016031612BBRC11      010FII BB CORP CI           R$  000000000805000000000080500000000008000000000000801800000000080450000000008020000000000804500084000000000000007585000000000060822263000000000000009999123100000010000000000000BRBBRCCTF004154
012016031602BBRK3       010BR BROKERS  ON      NM   R$  000000000018800000000001930000000000186000000000019000000000001880000000000188000000000019200332000000000000059500000000000011324700000000000000009999123100000010000000000000BRBBRKACNOR4110
012016031696BBRK3F      020BR BROKERS  ON      NM   R$  000000000018600000000001860000000000186000000000018600000000001860000000000170000000000019400001000000000000000007000000000000001302000000000000009999123100000010000000000000BRBBRKACNOR4110
012016031614BBSD11      010BB ETF SP DVCI           R$  000000000323000000000032300000000003230000000000323000000000032300000000002451000000000000000001000000000000001000000000000003230000000000000000009999123100000010000000000000BRBBSDCTF000100
012016031602BBSE3       010BBSEGURIDADEON      NM   R$  000000000271700000000027990000000002711000000000275000000000027780000000002778000000000278021864000000000008322800000000022894518500000000000000009999123100000010000000000000BRBBSEACNOR5106
012016031696BBSE3F      020BBSEGURIDADEON      NM   R$  000000000275700000000027920000000002700000000000275600000000027900000000002779000000000279000140000000000000003989000000000010997663000000000000009999123100000010000000000000BRBBSEACNOR5106
012016031662BBSE3T      030BBSEGURIDADEON      NM030R$  000000000277700000000028040000000002777000000000279000000000028040000000000000000000000000000004000000000000002000000000000005580533000000000000009999123100000010000000000000BRBBSEACNOR5106
012016031662BBSE3T      030BBSEGURIDADEON      NM061R$  000000000280400000000028340000000002804000000000281900000000028340000000000000000000000000000004000000000000010000000000000028192570000000000000009999123100000010000000000000BRBBSEACNOR5106
012016031678BBSEC26     070BBSE        ON      NM000R$  000000000027000000000002700000000000260000000000026500000000002600000000000220000000000000000002000000000000002000000000000000530000000000000252902016032100000010000000000000BRBBSEACNOR5105
012016031678BBSEC27     070BBSE        ON      NM000R$  000000000017000000000001700000000000170000000000017000000000001700000000000000000000000020000002000000000000001000000000000000170000000000000262902016032100000010000000000000BRBBSEACNOR5105
012016031678BBSEC28     070BBSE        ON      NM000R$  000000000013500000000001450000000000135000000000014100000000001450000000000000000000000000000003000000000000003200000000000000452000000000000267902016032100000010000000000000BRBBSEACNOR5105
012016031678BBSEC31     070BBSE        ON      NM000R$  000000000002300000000000240000000000023000000000002300000000000240000000000000000000000000000002000000000000003000000000000000071000000000000292902016032100000010000000000000BRBBSEACNOR5104
012016031678BBSEC73     070BBSEE       ON      NM000R$  000000000001700000000000170000000000017000000000001700000000000170000000000000000000000000000001000000000000000700000000000000011900000000000300402016032100000010000000000000BRBBSEACNOR5104
012016031678BBSED27     070BBSE        ON      NM000R$  000000000027000000000002700000000000270000000000027000000000002700000000000030000000000000000001000000000000000100000000000000027000000000000262902016041800000010000000000000BRBBSEACNOR5105
012016031678BBSED28     070BBSE        ON      NM000R$  000000000020500000000002050000000000205000000000020500000000002050000000000000000000000000000002000000000000001200000000000000246000000000000272902016041800000010000000000000BRBBSEACNOR5105
012016031678BBSED29     070BBSE        ON      NM000R$  000000000016300000000001630000000000163000000000016300000000001630000000000000000000000000000001000000000000004000000000000000652000000000000282902016041800000010000000000000BRBBSEACNOR5105
012016031678BBSED57     070BBSEE       ON      NM000R$  000000000024000000000002400000000000240000000000024000000000002400000000000000000000000000000001000000000002800000000000000672000000000000000265402016041800000010000000000000BRBBSEACNOR5105
012016031678BBSED81     070BBSEE       ON      NM000R$  000000000007100000000000710000000000071000000000007100000000000710000000000000000000000000000001000000000000000100000000000000007100000000000310402016041800000010000000000000BRBBSEACNOR5104
012016031678BBSED82     070BBSE  FM    ON      NM000R$  000000000006600000000000670000000000066000000000006600000000000670000000000000000000000000000002000000000000010000000000000000665000000000000312902016041800000010000000000000BRBBSEACNOR5104
012016031678BBSEE38     070BBSE        ON      NM000R$  000000000004000000000000480000000000040000000000004100000000000480000000000000000000000000000006000000000000028000000000000001152000000000000382902016051600000010000000000000BRBBSEACNOR5106
012016031678BBSEE71     070BBSEE       ON      NM000R$  000000000009500000000000950000000000095000000000009500000000000950000000000000000000000000000002000000000000500000000000000047500000000000000315402016051600000010000000000000BRBBSEACNOR5106
012016031678BBSEF88     070BBSEE       ON      NM000R$  000000000024300000000002430000000000243000000000024300000000002430000000000000000000000000000001000000000000001200000000000000291600000000000289202016062000000010000000000000BRBBSEACNOR5106
012016031678BBSEG70     070BBSEE       ON      NM000R$  000000000023700000000002370000000000237000000000023700000000002370000000000000000000000000000002000000000000027500000000000006517500000000000304202016071800000010000000000000BRBBSEACNOR5106
012016031682BBSEO27     080BBSEE       ON      NM000R$  000000000001600000000000160000000000016000000000001600000000000160000000000000000000000000000001000000000000001200000000000000019200000000000262902016032100000010000000000000BRBBSEACNOR5105
